:0400000005EF0AF00E
:1010000000002850D8B407EF08F009EF08F019EFF6
:1010100008F02850D96EDA6ADF30E832E832070B80
:10102000296E070E296417EF08F019EF08F06EEF2C
:1010300008F08EEF08F02850D96EDA6ADF30E83217
:10104000E832070B296E010E2A6E292A2AEF08F0D2
:10105000D8902A36292E28EF08F02A50FF0A2B6E46
:101060002850D96EDA6ADF50070B020DF350150FC6
:10107000D96EDA6ADECF2CF0DDCF2DF02CC0D9FF8F
:101080002DC0DAFF2B50DF168EEF08F02850D96EF6
:10109000DA6ADF30E832E832070B296E010E2A6E79
:1010A000292A55EF08F0D8902A36292E53EF08F058
:1010B0002850D96EDA6ADF50070B020DF350150F76
:1010C000D96EDA6ADECF2BF0DDCF2CF02BC0D9FF42
:1010D0002CC0DAFF2A50DF128EEF08F02850D96EAC
:1010E000DA6ADFBC76EF08F079EF08F0010E7AEFEC
:1010F00008F0000E296E2A6A2A50000AD8B483EF3D
:1011000008F019EF08F02950000AD8B41BEF08F0D6
:10111000010AD8B446EF08F019EF08F01200285081
:10112000D8B495EF08F097EF08F0A7EF08F0285033
:10113000D96EDA6ADF30E832E832070B2A6E070E22
:101140002A64A5EF08F0A7EF08F0FCEF08F011EF14
:1011500009F02850D96EDA6ADF30E832E832070B3E
:101160002A6E010E2B6E2A2AB8EF08F0D8902B3683
:101170002A2EB6EF08F02850D96EDA6ADF50070B36
:10118000020DF3500B0FD96EDA6ADECF2CF0DDCFF3
:101190002DF02CC0D9FF2DC0DAFF2B50DF1211EF3C
:1011A00009F02850D96EDA6ADF30E832E832070BEE
:1011B0002A6E010E2B6E2A2AE0EF08F0D8902B360B
:1011C0002A2EDEEF08F02B50FF0A2C6E2850D96E25
:1011D000DA6ADF50070B020DF3500B0FD96EDA6A93
:1011E000DECF2DF0DDCF2EF02DC0D9FF2EC0DAFFDF
:1011F0002C50DF1611EF09F029502A6E2B6A2B5064
:10120000000AD8B406EF09F0A7EF08F02A50000A48
:10121000D8B4D1EF08F0010AD8B4A9EF08F0A7EFCD
:1012200008F012002850D8B418EF09F01AEF09F0AE
:101230002AEF09F02850D96EDA6ADF30E832E83256
:10124000070B296E070E296428EF09F02AEF09F031
:101250002CEF09F052EF09F02850D96EDA6ADF302E
:10126000E832E832070B296E010E2A6E292A3BEF7D
:1012700009F0D8902A36292E39EF09F02850D96E76
:10128000DA6ADF50070B020DF3500B0FD96EDA6AE2
:10129000DECF2BF0DDCF2CF02BC0D9FF2CC0DAFF36
:1012A0002A50DF1A12002D50D8A459EF09F05BEF35
:1012B00009F05DEF09F087EF09F036C02FF02D50EF
:1012C000D96EDA6ADF50070B2E6E2F502E18F80BEE
:1012D0002E182F6E2D50D96EDA6ADF30E832E832E0
:1012E000070B2E6E2E462E462E462F502E18C70B5D
:1012F0002E182F6E2F9C2D50D96EDA6ADFAC02D0DB
:101300002F8E01D02F9E2F0E286E12EC09F01200A6
:101310003150D8A48EEF09F090EF09F092EF09F068
:10132000BCEF09F039C033F03150D96EDA6ADF50C2
:10133000070B326E33503218F80B3218336E3150BF
:10134000D96EDA6ADF30E832E832070B326E3246A5
:101350003246324633503218C70B3218336E339C44
:101360003150D96EDA6ADFAC02D0338E01D0339EB1
:10137000330E2F6EBDEC09F012002F50D8B4C3EF1E
:1013800009F0C5EF09F0D5EF09F02F50D96EDA6AF0
:10139000DF30E832E832070B306E070E3064D3EFEF
:1013A00009F0D5EF09F0D7EF09F0E6EF09F02FC00B
:1013B00028F001EC08F02FC028F02F50D96EDA6A1F
:1013C000000EDFBE010E296E8FEC08F0120032EC29
:1013D0000AF0270E2D6E53EC09F0260E2D6E53ECFD
:1013E00009F0250E2D6E53EC09F0030E356E080E34
:1013F000346E770EE82EFED7342EFCD7352EFAD772
:101400000000E9EF09F000EF00F03C0EF66E140E5C
:10141000F76E000EF86E00EE01F010EE27F00900F6
:10142000F5CFEEFFE550E150FAE1396A386A376AE4
:10143000366A000EF86E0001E7EF09F0800F810FA9
:10144000820F830F840F890F8A0F8B0F8C0F8D0FE4
:10145000920F930F940F950F960FCB01014300014C
:03146000524A42AB
:10146400270E316E88EC09F0260E316E88EC09F0F7
:0A147400250E316E88EC09F012001D
:020000040030CA
:0E000000FF02091EFF8181FF0FC00FE00F40BD
:00000001FF
