:0400000005EF0AF00E
:1010000000002250D8B407EF08F009EF08F019EFFC
:1010100008F02250D96EDA6ADF30E832E832070B86
:10102000236E070E236417EF08F019EF08F06EEF38
:1010300008F08EEF08F02250D96EDA6ADF30E8321D
:10104000E832070B236E010E246E232A2AEF08F0E4
:10105000D8902436232E28EF08F02450FF0A256E5E
:101060002250D96EDA6ADF50070B020DF350150FCC
:10107000D96EDA6ADECF26F0DDCF27F026C0D9FFA1
:1010800027C0DAFF2550DF168EEF08F02250D96E08
:10109000DA6ADF30E832E832070B236E010E246E85
:1010A000232A55EF08F0D8902436232E53EF08F06A
:1010B0002250D96EDA6ADF50070B020DF350150F7C
:1010C000D96EDA6ADECF25F0DDCF26F025C0D9FF54
:1010D00026C0DAFF2450DF128EEF08F02250D96EBE
:1010E000DA6ADFBC76EF08F079EF08F0010E7AEFEC
:1010F00008F0000E236E246A2450000AD8B483EF4F
:1011000008F019EF08F02350000AD8B41BEF08F0DC
:10111000010AD8B446EF08F019EF08F01200225087
:10112000D8B495EF08F097EF08F0A7EF08F0225039
:10113000D96EDA6ADF30E832E832070B246E070E28
:101140002464A5EF08F0A7EF08F0FCEF08F011EF1A
:1011500009F02250D96EDA6ADF30E832E832070B44
:10116000246E010E256E242AB8EF08F0D89025369B
:10117000242EB6EF08F02250D96EDA6ADF50070B42
:10118000020DF3500B0FD96EDA6ADECF26F0DDCFF9
:1011900027F026C0D9FF27C0DAFF2550DF1211EF54
:1011A00009F02250D96EDA6ADF30E832E832070BF4
:1011B000246E010E256E242AE0EF08F0D890253623
:1011C000242EDEEF08F02550FF0A266E2250D96E3D
:1011D000DA6ADF50070B020DF3500B0FD96EDA6A93
:1011E000DECF27F0DDCF28F027C0D9FF28C0DAFFF7
:1011F0002650DF1611EF09F02350246E256A255082
:10120000000AD8B406EF09F0A7EF08F02450000A4E
:10121000D8B4D1EF08F0010AD8B4A9EF08F0A7EFCD
:1012200008F012002250D8B418EF09F01AEF09F0B4
:101230002AEF09F02250D96EDA6ADF30E832E8325C
:10124000070B236E070E236428EF09F02AEF09F03D
:101250002CEF09F052EF09F02250D96EDA6ADF3034
:10126000E832E832070B236E010E246E232A3BEF8F
:1012700009F0D8902436232E39EF09F02250D96E88
:10128000DA6ADF50070B020DF3500B0FD96EDA6AE2
:10129000DECF25F0DDCF26F025C0D9FF26C0DAFF4E
:1012A0002450DF1A12002750D8A459EF09F05BEF41
:1012B00009F05DEF09F087EF09F030C029F0275001
:1012C000D96EDA6ADF50070B286E29502818F80B00
:1012D0002818296E2750D96EDA6ADF30E832E832F2
:1012E000070B286E28462846284629502818C70B81
:1012F0002818296E299C2750D96EDA6ADFAC02D0F3
:10130000298E01D0299E290E226E12EC09F01200BE
:101310002B50D8A48EEF09F090EF09F092EF09F06E
:10132000BCEF09F033C02DF02B50D96EDA6ADF50D4
:10133000070B2C6E2D502C18F80B2C182D6E2B50E3
:10134000D96EDA6ADF30E832E832070B2C6E2C46B1
:101350002C462C462D502C18C70B2C182D6E2D9C6E
:101360002B50D96EDA6ADFAC02D02D8E01D02D9EC3
:101370002D0E296EBDEC09F012002950D8B4C3EF30
:1013800009F0C5EF09F0D5EF09F02950D96EDA6AF6
:10139000DF30E832E832070B2A6E070E2A64D3EFFB
:1013A00009F0D5EF09F0D7EF09F0E6EF09F029C011
:1013B00022F001EC08F029C022F02950D96EDA6A37
:1013C000000EDFBE010E236E8FEC08F012002FEC32
:1013D0000AF0210E276E53EC09F0200E276E53EC15
:1013E00009F01F0E276E53EC09F0030E2F6E080E46
:1013F0002E6E770EE82EFED72E2EFCD72F2EFAD784
:101400000000E9EF09F000EF00F03C0EF66E140E5C
:10141000F76E000EF86E00EE01F010EE21F00900FC
:10142000F5CFEEFFE550E150FAE1336A326A316AF6
:10143000306A000EF86E0001E7EF09F0800F810FAF
:10144000820F830F840F890F8A0F8B0F8C0F8D0FE4
:0D145000920F930F940F950F960F524A4282
:10145E00210E2B6E88EC09F0200E2B6E88EC09F015
:0A146E001F0E2B6E88EC09F012002F
:020000040030CA
:0E000000FF02091EFF8181FF0FC00FE00F40BD
:00000001FF
